{
  "_format": "hh-sol-artifact-1",
  "contractName": "Orders",
  "sourceName": "contracts/Orders.sol",
  "abi": [
    {
      "anonymous": false,
      "inputs": [
        {
          "indexed": true,
          "internalType": "uint256",
          "name": "orderId",
          "type": "uint256"
        },
        {
          "indexed": false,
          "internalType": "address",
          "name": "sender",
          "type": "address"
        },
        {
          "indexed": false,
          "internalType": "address",
          "name": "receiver",
          "type": "address"
        },
        {
          "indexed": false,
          "internalType": "uint256",
          "name": "amount",
          "type": "uint256"
        },
        {
          "indexed": false,
          "internalType": "string",
          "name": "fromCurrency",
          "type": "string"
        },
        {
          "indexed": false,
          "internalType": "string",
          "name": "toCurrency",
          "type": "string"
        }
      ],
      "name": "OrderCanceled",
      "type": "event"
    },
    {
      "anonymous": false,
      "inputs": [
        {
          "indexed": true,
          "internalType": "uint256",
          "name": "orderId",
          "type": "uint256"
        },
        {
          "indexed": false,
          "internalType": "address",
          "name": "sender",
          "type": "address"
        },
        {
          "indexed": false,
          "internalType": "address",
          "name": "receiver",
          "type": "address"
        },
        {
          "indexed": false,
          "internalType": "uint256",
          "name": "amount",
          "type": "uint256"
        },
        {
          "indexed": false,
          "internalType": "string",
          "name": "fromCurrency",
          "type": "string"
        },
        {
          "indexed": false,
          "internalType": "string",
          "name": "toCurrency",
          "type": "string"
        }
      ],
      "name": "OrderCompleted",
      "type": "event"
    },
    {
      "anonymous": false,
      "inputs": [
        {
          "indexed": true,
          "internalType": "uint256",
          "name": "orderId",
          "type": "uint256"
        },
        {
          "indexed": false,
          "internalType": "address",
          "name": "sender",
          "type": "address"
        },
        {
          "indexed": false,
          "internalType": "address",
          "name": "receiver",
          "type": "address"
        },
        {
          "indexed": false,
          "internalType": "uint256",
          "name": "amount",
          "type": "uint256"
        },
        {
          "indexed": false,
          "internalType": "string",
          "name": "fromCurrency",
          "type": "string"
        },
        {
          "indexed": false,
          "internalType": "string",
          "name": "toCurrency",
          "type": "string"
        }
      ],
      "name": "OrderCreated",
      "type": "event"
    },
    {
      "anonymous": false,
      "inputs": [
        {
          "indexed": true,
          "internalType": "uint256",
          "name": "orderId",
          "type": "uint256"
        },
        {
          "indexed": false,
          "internalType": "address",
          "name": "courier",
          "type": "address"
        }
      ],
      "name": "OrderInProgress",
      "type": "event"
    },
    {
      "inputs": [
        {
          "internalType": "uint256",
          "name": "_orderId",
          "type": "uint256"
        },
        {
          "internalType": "address",
          "name": "_courier",
          "type": "address"
        }
      ],
      "name": "assignCourier",
      "outputs": [],
      "stateMutability": "nonpayable",
      "type": "function"
    },
    {
      "inputs": [
        {
          "internalType": "uint256",
          "name": "_orderId",
          "type": "uint256"
        }
      ],
      "name": "cancelOrder",
      "outputs": [],
      "stateMutability": "nonpayable",
      "type": "function"
    },
    {
      "inputs": [
        {
          "internalType": "uint256",
          "name": "_orderId",
          "type": "uint256"
        }
      ],
      "name": "completeOrder",
      "outputs": [],
      "stateMutability": "nonpayable",
      "type": "function"
    },
    {
      "inputs": [
        {
          "internalType": "address",
          "name": "_receiver",
          "type": "address"
        },
        {
          "internalType": "uint256",
          "name": "_amount",
          "type": "uint256"
        },
        {
          "internalType": "string",
          "name": "_fromCurrency",
          "type": "string"
        },
        {
          "internalType": "string",
          "name": "_toCurrency",
          "type": "string"
        },
        {
          "internalType": "string",
          "name": "_locationId",
          "type": "string"
        }
      ],
      "name": "createOrder",
      "outputs": [],
      "stateMutability": "nonpayable",
      "type": "function"
    },
    {
      "inputs": [],
      "name": "getCreatedOrders",
      "outputs": [
        {
          "components": [
            {
              "internalType": "uint256",
              "name": "orderId",
              "type": "uint256"
            },
            {
              "internalType": "address",
              "name": "sender",
              "type": "address"
            },
            {
              "internalType": "address",
              "name": "receiver",
              "type": "address"
            },
            {
              "internalType": "address",
              "name": "courier",
              "type": "address"
            },
            {
              "internalType": "uint256",
              "name": "amount",
              "type": "uint256"
            },
            {
              "internalType": "string",
              "name": "fromCurrency",
              "type": "string"
            },
            {
              "internalType": "string",
              "name": "toCurrency",
              "type": "string"
            },
            {
              "internalType": "string",
              "name": "locationId",
              "type": "string"
            },
            {
              "internalType": "enum Orders.OrderStatus",
              "name": "status",
              "type": "uint8"
            }
          ],
          "internalType": "struct Orders.Order[]",
          "name": "",
          "type": "tuple[]"
        }
      ],
      "stateMutability": "view",
      "type": "function"
    },
    {
      "inputs": [
        {
          "internalType": "uint256",
          "name": "_orderId",
          "type": "uint256"
        }
      ],
      "name": "getOrder",
      "outputs": [
        {
          "components": [
            {
              "internalType": "uint256",
              "name": "orderId",
              "type": "uint256"
            },
            {
              "internalType": "address",
              "name": "sender",
              "type": "address"
            },
            {
              "internalType": "address",
              "name": "receiver",
              "type": "address"
            },
            {
              "internalType": "address",
              "name": "courier",
              "type": "address"
            },
            {
              "internalType": "uint256",
              "name": "amount",
              "type": "uint256"
            },
            {
              "internalType": "string",
              "name": "fromCurrency",
              "type": "string"
            },
            {
              "internalType": "string",
              "name": "toCurrency",
              "type": "string"
            },
            {
              "internalType": "string",
              "name": "locationId",
              "type": "string"
            },
            {
              "internalType": "enum Orders.OrderStatus",
              "name": "status",
              "type": "uint8"
            }
          ],
          "internalType": "struct Orders.Order",
          "name": "",
          "type": "tuple"
        }
      ],
      "stateMutability": "view",
      "type": "function"
    },
    {
      "inputs": [
        {
          "internalType": "uint256",
          "name": "",
          "type": "uint256"
        }
      ],
      "name": "orders",
      "outputs": [
        {
          "internalType": "uint256",
          "name": "orderId",
          "type": "uint256"
        },
        {
          "internalType": "address",
          "name": "sender",
          "type": "address"
        },
        {
          "internalType": "address",
          "name": "receiver",
          "type": "address"
        },
        {
          "internalType": "address",
          "name": "courier",
          "type": "address"
        },
        {
          "internalType": "uint256",
          "name": "amount",
          "type": "uint256"
        },
        {
          "internalType": "string",
          "name": "fromCurrency",
          "type": "string"
        },
        {
          "internalType": "string",
          "name": "toCurrency",
          "type": "string"
        },
        {
          "internalType": "string",
          "name": "locationId",
          "type": "string"
        },
        {
          "internalType": "enum Orders.OrderStatus",
          "name": "status",
          "type": "uint8"
        }
      ],
      "stateMutability": "view",
      "type": "function"
    }
  ],
  "bytecode": "0x608060405234801561001057600080fd5b50612a77806100206000396000f3fe608060405234801561001057600080fd5b506004361061007d5760003560e01c8063a85c38ef1161005b578063a85c38ef146100d8578063b6adaaff14610110578063d09ef2411461012c578063fde260bc1461015c5761007d565b8063219b5e9214610082578063514fcac7146100a0578063a6a8af88146100bc575b600080fd5b61008a610178565b60405161009791906119ed565b60405180910390f35b6100ba60048036038101906100b59190611a4f565b610654565b005b6100d660048036038101906100d19190611aa8565b610923565b005b6100f260048036038101906100ed9190611a4f565b610b5e565b60405161010799989796959493929190611b5f565b60405180910390f35b61012a60048036038101906101259190611a4f565b610dc1565b005b61014660048036038101906101419190611a4f565b610f80565b6040516101539190611cd4565b60405180910390f35b61017660048036038101906101719190611e2b565b611323565b005b60606000805b60008054905081101561020b576000600381111561019f5761019e61180d565b5b600082815481106101b3576101b2611efa565b5b906000526020600020906009020160080160009054906101000a900460ff1660038111156101e4576101e361180d565b5b036101f85781806101f490611f58565b9250505b808061020390611f58565b91505061017e565b5060008167ffffffffffffffff81111561022857610227611d00565b5b60405190808252806020026020018201604052801561026157816020015b61024e611657565b8152602001906001900390816102465790505b5090506000915060005b60008054905081101561064b576000600381111561028c5761028b61180d565b5b600082815481106102a05761029f611efa565b5b906000526020600020906009020160080160009054906101000a900460ff1660038111156102d1576102d061180d565b5b0361063857600081815481106102ea576102e9611efa565b5b906000526020600020906009020160405180610120016040529081600082015481526020016001820160009054906101000a900473ffffffffffffffffffffffffffffffffffffffff1673ffffffffffffffffffffffffffffffffffffffff1673ffffffffffffffffffffffffffffffffffffffff1681526020016002820160009054906101000a900473ffffffffffffffffffffffffffffffffffffffff1673ffffffffffffffffffffffffffffffffffffffff1673ffffffffffffffffffffffffffffffffffffffff1681526020016003820160009054906101000a900473ffffffffffffffffffffffffffffffffffffffff1673ffffffffffffffffffffffffffffffffffffffff1673ffffffffffffffffffffffffffffffffffffffff1681526020016004820154815260200160058201805461042a90611fcf565b80601f016020809104026020016040519081016040528092919081815260200182805461045690611fcf565b80156104a35780601f10610478576101008083540402835291602001916104a3565b820191906000526020600020905b81548152906001019060200180831161048657829003601f168201915b505050505081526020016006820180546104bc90611fcf565b80601f01602080910402602001604051908101604052809291908181526020018280546104e890611fcf565b80156105355780601f1061050a57610100808354040283529160200191610535565b820191906000526020600020905b81548152906001019060200180831161051857829003601f168201915b5050505050815260200160078201805461054e90611fcf565b80601f016020809104026020016040519081016040528092919081815260200182805461057a90611fcf565b80156105c75780601f1061059c576101008083540402835291602001916105c7565b820191906000526020600020905b8154815290600101906020018083116105aa57829003601f168201915b505050505081526020016008820160009054906101000a900460ff1660038111156105f5576105f461180d565b5b60038111156106075761060661180d565b5b8152505082848151811061061e5761061d611efa565b5b6020026020010181905250828061063490611f58565b9350505b808061064390611f58565b91505061026b565b50809250505090565b6000806001836106649190612000565b8154811061067557610674611efa565b5b906000526020600020906009020190508060010160009054906101000a900473ffffffffffffffffffffffffffffffffffffffff1673ffffffffffffffffffffffffffffffffffffffff163373ffffffffffffffffffffffffffffffffffffffff16148061073257508060030160009054906101000a900473ffffffffffffffffffffffffffffffffffffffff1673ffffffffffffffffffffffffffffffffffffffff163373ffffffffffffffffffffffffffffffffffffffff16145b610771576040517f08c379a0000000000000000000000000000000000000000000000000000000008152600401610768906120cc565b60405180910390fd5b600260038111156107855761078461180d565b5b8160080160009054906101000a900460ff1660038111156107a9576107a861180d565b5b036107e9576040517f08c379a00000000000000000000000000000000000000000000000000000000081526004016107e09061215e565b60405180910390fd5b6003808111156107fc576107fb61180d565b5b8160080160009054906101000a900460ff1660038111156108205761081f61180d565b5b03610860576040517f08c379a0000000000000000000000000000000000000000000000000000000008152600401610857906121f0565b60405180910390fd5b60038160080160006101000a81548160ff021916908360038111156108885761088761180d565b5b0217905550817f0e0b1ae0831e28655a536252a056cee23f5d99795d943f7d3da326e178cb250c8260010160009054906101000a900473ffffffffffffffffffffffffffffffffffffffff168360020160009054906101000a900473ffffffffffffffffffffffffffffffffffffffff16846004015485600501866006016040516109179594939291906122a9565b60405180910390a25050565b6000806001846109339190612000565b8154811061094457610943611efa565b5b906000526020600020906009020190506000805490506001846109679190612000565b106109a7576040517f08c379a000000000000000000000000000000000000000000000000000000000815260040161099e90612356565b60405180910390fd5b600060038111156109bb576109ba61180d565b5b8160080160009054906101000a900460ff1660038111156109df576109de61180d565b5b14610a1f576040517f08c379a0000000000000000000000000000000000000000000000000000000008152600401610a16906123e8565b60405180910390fd5b8060010160009054906101000a900473ffffffffffffffffffffffffffffffffffffffff1673ffffffffffffffffffffffffffffffffffffffff163373ffffffffffffffffffffffffffffffffffffffff1614610ab1576040517f08c379a0000000000000000000000000000000000000000000000000000000008152600401610aa89061247a565b60405180910390fd5b818160030160006101000a81548173ffffffffffffffffffffffffffffffffffffffff021916908373ffffffffffffffffffffffffffffffffffffffff16021790555060018160080160006101000a81548160ff02191690836003811115610b1c57610b1b61180d565b5b0217905550827f6f49e8e06ab36caa55c231cde7e20d9e78a19713643b3797dea8989990f6234e83604051610b51919061249a565b60405180910390a2505050565b60008181548110610b6e57600080fd5b90600052602060002090600902016000915090508060000154908060010160009054906101000a900473ffffffffffffffffffffffffffffffffffffffff16908060020160009054906101000a900473ffffffffffffffffffffffffffffffffffffffff16908060030160009054906101000a900473ffffffffffffffffffffffffffffffffffffffff1690806004015490806005018054610c0f90611fcf565b80601f0160208091040260200160405190810160405280929190818152602001828054610c3b90611fcf565b8015610c885780601f10610c5d57610100808354040283529160200191610c88565b820191906000526020600020905b815481529060010190602001808311610c6b57829003601f168201915b505050505090806006018054610c9d90611fcf565b80601f0160208091040260200160405190810160405280929190818152602001828054610cc990611fcf565b8015610d165780601f10610ceb57610100808354040283529160200191610d16565b820191906000526020600020905b815481529060010190602001808311610cf957829003601f168201915b505050505090806007018054610d2b90611fcf565b80601f0160208091040260200160405190810160405280929190818152602001828054610d5790611fcf565b8015610da45780601f10610d7957610100808354040283529160200191610da4565b820191906000526020600020905b815481529060010190602001808311610d8757829003601f168201915b5050505050908060080160009054906101000a900460ff16905089565b600080549050600182610dd49190612000565b10610e14576040517f08c379a0000000000000000000000000000000000000000000000000000000008152600401610e0b90612501565b60405180910390fd5b600080600183610e249190612000565b81548110610e3557610e34611efa565b5b9060005260206000209060090201905060016003811115610e5957610e5861180d565b5b8160080160009054906101000a900460ff166003811115610e7d57610e7c61180d565b5b14610ebd576040517f08c379a0000000000000000000000000000000000000000000000000000000008152600401610eb490612593565b60405180910390fd5b60028160080160006101000a81548160ff02191690836003811115610ee557610ee461180d565b5b0217905550817f89caf7127747ab79491d75a087fde53ec4cb8df119fcf1a5788227ba3b8136a98260010160009054906101000a900473ffffffffffffffffffffffffffffffffffffffff168360020160009054906101000a900473ffffffffffffffffffffffffffffffffffffffff1684600401548560050186600601604051610f749594939291906122a9565b60405180910390a25050565b610f88611657565b600080549050600183610f9b9190612000565b10610fdb576040517f08c379a0000000000000000000000000000000000000000000000000000000008152600401610fd2906125ff565b60405180910390fd5b6000600183610fea9190612000565b81548110610ffb57610ffa611efa565b5b906000526020600020906009020160405180610120016040529081600082015481526020016001820160009054906101000a900473ffffffffffffffffffffffffffffffffffffffff1673ffffffffffffffffffffffffffffffffffffffff1673ffffffffffffffffffffffffffffffffffffffff1681526020016002820160009054906101000a900473ffffffffffffffffffffffffffffffffffffffff1673ffffffffffffffffffffffffffffffffffffffff1673ffffffffffffffffffffffffffffffffffffffff1681526020016003820160009054906101000a900473ffffffffffffffffffffffffffffffffffffffff1673ffffffffffffffffffffffffffffffffffffffff1673ffffffffffffffffffffffffffffffffffffffff1681526020016004820154815260200160058201805461113b90611fcf565b80601f016020809104026020016040519081016040528092919081815260200182805461116790611fcf565b80156111b45780601f10611189576101008083540402835291602001916111b4565b820191906000526020600020905b81548152906001019060200180831161119757829003601f168201915b505050505081526020016006820180546111cd90611fcf565b80601f01602080910402602001604051908101604052809291908181526020018280546111f990611fcf565b80156112465780601f1061121b57610100808354040283529160200191611246565b820191906000526020600020905b81548152906001019060200180831161122957829003601f168201915b5050505050815260200160078201805461125f90611fcf565b80601f016020809104026020016040519081016040528092919081815260200182805461128b90611fcf565b80156112d85780601f106112ad576101008083540402835291602001916112d8565b820191906000526020600020905b8154815290600101906020018083116112bb57829003601f168201915b505050505081526020016008820160009054906101000a900460ff1660038111156113065761130561180d565b5b60038111156113185761131761180d565b5b815250509050919050565b60008411611366576040517f08c379a000000000000000000000000000000000000000000000000000000000815260040161135d90612691565b60405180910390fd5b3373ffffffffffffffffffffffffffffffffffffffff168573ffffffffffffffffffffffffffffffffffffffff16036113d4576040517f08c379a00000000000000000000000000000000000000000000000000000000081526004016113cb90612723565b60405180910390fd5b600060016000805490506113e89190612743565b905060006040518061012001604052808381526020013373ffffffffffffffffffffffffffffffffffffffff1681526020018873ffffffffffffffffffffffffffffffffffffffff168152602001600073ffffffffffffffffffffffffffffffffffffffff1681526020018781526020018681526020018581526020018481526020016000600381111561147f5761147e61180d565b5b815250905060008190806001815401808255809150506001900390600052602060002090600902016000909190919091506000820151816000015560208201518160010160006101000a81548173ffffffffffffffffffffffffffffffffffffffff021916908373ffffffffffffffffffffffffffffffffffffffff16021790555060408201518160020160006101000a81548173ffffffffffffffffffffffffffffffffffffffff021916908373ffffffffffffffffffffffffffffffffffffffff16021790555060608201518160030160006101000a81548173ffffffffffffffffffffffffffffffffffffffff021916908373ffffffffffffffffffffffffffffffffffffffff1602179055506080820151816004015560a08201518160050190816115ae919061290e565b5060c08201518160060190816115c4919061290e565b5060e08201518160070190816115da919061290e565b506101008201518160080160006101000a81548160ff021916908360038111156116075761160661180d565b5b02179055505050817f94d83ee4ad8ed8fb55830d517a2ebc7760ed3c1f81eb02e537088a7c0ee5629233898989896040516116469594939291906129e0565b60405180910390a250505050505050565b60405180610120016040528060008152602001600073ffffffffffffffffffffffffffffffffffffffff168152602001600073ffffffffffffffffffffffffffffffffffffffff168152602001600073ffffffffffffffffffffffffffffffffffffffff16815260200160008152602001606081526020016060815260200160608152602001600060038111156116f1576116f061180d565b5b81525090565b600081519050919050565b600082825260208201905092915050565b6000819050602082019050919050565b6000819050919050565b61173681611723565b82525050565b600073ffffffffffffffffffffffffffffffffffffffff82169050919050565b60006117678261173c565b9050919050565b6117778161175c565b82525050565b600081519050919050565b600082825260208201905092915050565b60005b838110156117b757808201518184015260208101905061179c565b60008484015250505050565b6000601f19601f8301169050919050565b60006117df8261177d565b6117e98185611788565b93506117f9818560208601611799565b611802816117c3565b840191505092915050565b7f4e487b7100000000000000000000000000000000000000000000000000000000600052602160045260246000fd5b6004811061184d5761184c61180d565b5b50565b600081905061185e8261183c565b919050565b600061186e82611850565b9050919050565b61187e81611863565b82525050565b60006101208301600083015161189d600086018261172d565b5060208301516118b0602086018261176e565b5060408301516118c3604086018261176e565b5060608301516118d6606086018261176e565b5060808301516118e9608086018261172d565b5060a083015184820360a086015261190182826117d4565b91505060c083015184820360c086015261191b82826117d4565b91505060e083015184820360e086015261193582826117d4565b91505061010083015161194c610100860182611875565b508091505092915050565b60006119638383611884565b905092915050565b6000602082019050919050565b6000611983826116f7565b61198d8185611702565b93508360208202850161199f85611713565b8060005b858110156119db57848403895281516119bc8582611957565b94506119c78361196b565b925060208a019950506001810190506119a3565b50829750879550505050505092915050565b60006020820190508181036000830152611a078184611978565b905092915050565b6000604051905090565b600080fd5b600080fd5b611a2c81611723565b8114611a3757600080fd5b50565b600081359050611a4981611a23565b92915050565b600060208284031215611a6557611a64611a19565b5b6000611a7384828501611a3a565b91505092915050565b611a858161175c565b8114611a9057600080fd5b50565b600081359050611aa281611a7c565b92915050565b60008060408385031215611abf57611abe611a19565b5b6000611acd85828601611a3a565b9250506020611ade85828601611a93565b9150509250929050565b611af181611723565b82525050565b611b008161175c565b82525050565b600082825260208201905092915050565b6000611b228261177d565b611b2c8185611b06565b9350611b3c818560208601611799565b611b45816117c3565b840191505092915050565b611b5981611863565b82525050565b600061012082019050611b75600083018c611ae8565b611b82602083018b611af7565b611b8f604083018a611af7565b611b9c6060830189611af7565b611ba96080830188611ae8565b81810360a0830152611bbb8187611b17565b905081810360c0830152611bcf8186611b17565b905081810360e0830152611be38185611b17565b9050611bf3610100830184611b50565b9a9950505050505050505050565b600061012083016000830151611c1a600086018261172d565b506020830151611c2d602086018261176e565b506040830151611c40604086018261176e565b506060830151611c53606086018261176e565b506080830151611c66608086018261172d565b5060a083015184820360a0860152611c7e82826117d4565b91505060c083015184820360c0860152611c9882826117d4565b91505060e083015184820360e0860152611cb282826117d4565b915050610100830151611cc9610100860182611875565b508091505092915050565b60006020820190508181036000830152611cee8184611c01565b905092915050565b600080fd5b600080fd5b7f4e487b7100000000000000000000000000000000000000000000000000000000600052604160045260246000fd5b611d38826117c3565b810181811067ffffffffffffffff82111715611d5757611d56611d00565b5b80604052505050565b6000611d6a611a0f565b9050611d768282611d2f565b919050565b600067ffffffffffffffff821115611d9657611d95611d00565b5b611d9f826117c3565b9050602081019050919050565b82818337600083830152505050565b6000611dce611dc984611d7b565b611d60565b905082815260208101848484011115611dea57611de9611cfb565b5b611df5848285611dac565b509392505050565b600082601f830112611e1257611e11611cf6565b5b8135611e22848260208601611dbb565b91505092915050565b600080600080600060a08688031215611e4757611e46611a19565b5b6000611e5588828901611a93565b9550506020611e6688828901611a3a565b945050604086013567ffffffffffffffff811115611e8757611e86611a1e565b5b611e9388828901611dfd565b935050606086013567ffffffffffffffff811115611eb457611eb3611a1e565b5b611ec088828901611dfd565b925050608086013567ffffffffffffffff811115611ee157611ee0611a1e565b5b611eed88828901611dfd565b9150509295509295909350565b7f4e487b7100000000000000000000000000000000000000000000000000000000600052603260045260246000fd5b7f4e487b7100000000000000000000000000000000000000000000000000000000600052601160045260246000fd5b6000611f6382611723565b91507fffffffffffffffffffffffffffffffffffffffffffffffffffffffffffffffff8203611f9557611f94611f29565b5b600182019050919050565b7f4e487b7100000000000000000000000000000000000000000000000000000000600052602260045260246000fd5b60006002820490506001821680611fe757607f821691505b602082108103611ffa57611ff9611fa0565b5b50919050565b600061200b82611723565b915061201683611723565b925082820390508181111561202e5761202d611f29565b5b92915050565b7f4f6e6c79207468652063726561746f72206f662074686973206f72646572206f60008201527f72207468652073656c656374656420636f75726965722063616e2063616e636560208201527f6c2074686973206f726465722e00000000000000000000000000000000000000604082015250565b60006120b6604d83611b06565b91506120c182612034565b606082019050919050565b600060208201905081810360008301526120e5816120a9565b9050919050565b7f54686973206f726465722068617320616c7265616479206265656e20636f6d7060008201527f6c657465642e0000000000000000000000000000000000000000000000000000602082015250565b6000612148602683611b06565b9150612153826120ec565b604082019050919050565b600060208201905081810360008301526121778161213b565b9050919050565b7f54686973206f726465722068617320616c7265616479206265656e2063616e6360008201527f656c65642e000000000000000000000000000000000000000000000000000000602082015250565b60006121da602583611b06565b91506121e58261217e565b604082019050919050565b60006020820190508181036000830152612209816121cd565b9050919050565b60008190508160005260206000209050919050565b6000815461223281611fcf565b61223c8186611b06565b94506001821660008114612257576001811461226d576122a0565b60ff1983168652811515602002860193506122a0565b61227685612210565b60005b8381101561229857815481890152600182019150602081019050612279565b808801955050505b50505092915050565b600060a0820190506122be6000830188611af7565b6122cb6020830187611af7565b6122d86040830186611ae8565b81810360608301526122ea8185612225565b905081810360808301526122fe8184612225565b90509695505050505050565b7f54686174206f7264657220646f65736e27742065786973742e00000000000000600082015250565b6000612340601983611b06565b915061234b8261230a565b602082019050919050565b6000602082019050818103600083015261236f81612333565b9050919050565b7f54686973206f7264657220697320616c72656164792065697468657220696e2060008201527f70726f67726573732c20636f6d706c657465206f722063616e63656c65642e00602082015250565b60006123d2603f83611b06565b91506123dd82612376565b604082019050919050565b60006020820190508181036000830152612401816123c5565b9050919050565b7f4f6e6c79207468652073656e6465722063616e2061737369676e206120636f7560008201527f726965722e000000000000000000000000000000000000000000000000000000602082015250565b6000612464602583611b06565b915061246f82612408565b604082019050919050565b6000602082019050818103600083015261249381612457565b9050919050565b60006020820190506124af6000830184611af7565b92915050565b7f4f7264657220646f65736e27742065786973742e000000000000000000000000600082015250565b60006124eb601483611b06565b91506124f6826124b5565b602082019050919050565b6000602082019050818103600083015261251a816124de565b9050919050565b7f4f72646572206d75737420626520696e2070726f677265737320746f20636f6d60008201527f706c6574652e0000000000000000000000000000000000000000000000000000602082015250565b600061257d602683611b06565b915061258882612521565b604082019050919050565b600060208201905081810360008301526125ac81612570565b9050919050565b7f54686174206f7264657220646f65736e27742065786973740000000000000000600082015250565b60006125e9601883611b06565b91506125f4826125b3565b602082019050919050565b60006020820190508181036000830152612618816125dc565b9050919050565b7f416d6f756e74206d7573742062652067726561746572207468616e207a65726f60008201527f2e00000000000000000000000000000000000000000000000000000000000000602082015250565b600061267b602183611b06565b91506126868261261f565b604082019050919050565b600060208201905081810360008301526126aa8161266e565b9050919050565b7f52656365697665722063616e6e6f74206265207468652073616d65206173207460008201527f68652073656e6465722e00000000000000000000000000000000000000000000602082015250565b600061270d602a83611b06565b9150612718826126b1565b604082019050919050565b6000602082019050818103600083015261273c81612700565b9050919050565b600061274e82611723565b915061275983611723565b925082820190508082111561277157612770611f29565b5b92915050565b60006020601f8301049050919050565b600082821b905092915050565b6000600883026127c47fffffffffffffffffffffffffffffffffffffffffffffffffffffffffffffffff82612787565b6127ce8683612787565b95508019841693508086168417925050509392505050565b6000819050919050565b600061280b61280661280184611723565b6127e6565b611723565b9050919050565b6000819050919050565b612825836127f0565b61283961283182612812565b848454612794565b825550505050565b600090565b61284e612841565b61285981848461281c565b505050565b5b8181101561287d57612872600082612846565b60018101905061285f565b5050565b601f8211156128c25761289381612210565b61289c84612777565b810160208510156128ab578190505b6128bf6128b785612777565b83018261285e565b50505b505050565b600082821c905092915050565b60006128e5600019846008026128c7565b1980831691505092915050565b60006128fe83836128d4565b9150826002028217905092915050565b6129178261177d565b67ffffffffffffffff8111156129305761292f611d00565b5b61293a8254611fcf565b612945828285612881565b600060209050601f8311600181146129785760008415612966578287015190505b61297085826128f2565b8655506129d8565b601f19841661298686612210565b60005b828110156129ae57848901518255600182019150602085019450602081019050612989565b868310156129cb57848901516129c7601f8916826128d4565b8355505b6001600288020188555050505b505050505050565b600060a0820190506129f56000830188611af7565b612a026020830187611af7565b612a0f6040830186611ae8565b8181036060830152612a218185611b17565b90508181036080830152612a358184611b17565b9050969550505050505056fea2646970667358221220733be5e76b2d36b338046bf2ba407a3de5ca6e2f463193ec480e476ea0d32b1264736f6c63430008150033",
  "linkReferences": {},
  "deployedLinkReferences": {}
}